{
  "contractName": "SensorsContract",
  "abi": [
    {
      "inputs": [],
      "stateMutability": "nonpayable",
      "type": "constructor"
    },
    {
      "anonymous": false,
      "inputs": [
        {
          "indexed": false,
          "internalType": "uint256",
          "name": "id",
          "type": "uint256"
        },
        {
          "indexed": false,
          "internalType": "string",
          "name": "NoSerie",
          "type": "string"
        },
        {
          "indexed": false,
          "internalType": "string",
          "name": "Name",
          "type": "string"
        },
        {
          "indexed": false,
          "internalType": "bool",
          "name": "active",
          "type": "bool"
        },
        {
          "indexed": false,
          "internalType": "uint256",
          "name": "addAt",
          "type": "uint256"
        }
      ],
      "name": "SensorAdd",
      "type": "event"
    },
    {
      "anonymous": false,
      "inputs": [
        {
          "indexed": false,
          "internalType": "uint256",
          "name": "id",
          "type": "uint256"
        },
        {
          "indexed": false,
          "internalType": "bool",
          "name": "active",
          "type": "bool"
        }
      ],
      "name": "SensorStatusActive",
      "type": "event"
    },
    {
      "inputs": [],
      "name": "SensorCounter",
      "outputs": [
        {
          "internalType": "uint256",
          "name": "",
          "type": "uint256"
        }
      ],
      "stateMutability": "view",
      "type": "function",
      "constant": true
    },
    {
      "inputs": [],
      "name": "dataTemp",
      "outputs": [
        {
          "internalType": "uint256",
          "name": "",
          "type": "uint256"
        }
      ],
      "stateMutability": "view",
      "type": "function",
      "constant": true
    },
    {
      "inputs": [
        {
          "internalType": "uint256",
          "name": "",
          "type": "uint256"
        }
      ],
      "name": "sensors",
      "outputs": [
        {
          "internalType": "uint256",
          "name": "id",
          "type": "uint256"
        },
        {
          "internalType": "string",
          "name": "NoSerie",
          "type": "string"
        },
        {
          "internalType": "string",
          "name": "Name",
          "type": "string"
        },
        {
          "internalType": "bool",
          "name": "active",
          "type": "bool"
        },
        {
          "internalType": "uint256",
          "name": "addAt",
          "type": "uint256"
        }
      ],
      "stateMutability": "view",
      "type": "function",
      "constant": true
    },
    {
      "inputs": [
        {
          "internalType": "string",
          "name": "_NoSerie",
          "type": "string"
        },
        {
          "internalType": "string",
          "name": "_Name",
          "type": "string"
        }
      ],
      "name": "AddSensor",
      "outputs": [],
      "stateMutability": "nonpayable",
      "type": "function"
    },
    {
      "inputs": [
        {
          "internalType": "uint256",
          "name": "_id",
          "type": "uint256"
        }
      ],
      "name": "SensorStatus",
      "outputs": [],
      "stateMutability": "nonpayable",
      "type": "function"
    },
    {
      "inputs": [
        {
          "internalType": "uint256",
          "name": "_data",
          "type": "uint256"
        }
      ],
      "name": "setTemp",
      "outputs": [],
      "stateMutability": "nonpayable",
      "type": "function"
    },
    {
      "inputs": [],
      "name": "getTemp",
      "outputs": [
        {
          "internalType": "uint256",
          "name": "",
          "type": "uint256"
        }
      ],
      "stateMutability": "view",
      "type": "function",
      "constant": true
    }
  ],
  "bytecode": "0x608060405260006001553480156200001657600080fd5b50620000936040518060400160405280600f81526020017f4e554d45524f44455345524945303100000000000000000000000000000000008152506040518060400160405280601581526020017f53656e736f7220445331384232302044414c4c415300000000000000000000008152506200009960201b60201c565b62000488565b60016000815480929190620000ae906200029a565b91905055506040518060a001604052806001548152602001838152602001828152602001600115158152602001428152506002600060015481526020019081526020016000206000820151816000015560208201518160010190805190602001906200011c929190620001b1565b5060408201518160020190805190602001906200013b929190620001b1565b5060608201518160030160006101000a81548160ff021916908315150217905550608082015181600401559050507fa1dba520ca885b2a06301af12ac157728eb7571de70cf7b2151a2a912aaf38a46001548383600142604051620001a5959493929190620003b9565b60405180910390a15050565b828054620001bf9062000453565b90600052602060002090601f016020900481019282620001e357600085556200022f565b82601f10620001fe57805160ff19168380011785556200022f565b828001600101855582156200022f579182015b828111156200022e57825182559160200191906001019062000211565b5b5090506200023e919062000242565b5090565b5b808211156200025d57600081600090555060010162000243565b5090565b7f4e487b7100000000000000000000000000000000000000000000000000000000600052601160045260246000fd5b6000819050919050565b6000620002a78262000290565b91507fffffffffffffffffffffffffffffffffffffffffffffffffffffffffffffffff8203620002dc57620002db62000261565b5b600182019050919050565b620002f28162000290565b82525050565b600081519050919050565b600082825260208201905092915050565b60005b838110156200033457808201518184015260208101905062000317565b8381111562000344576000848401525b50505050565b6000601f19601f8301169050919050565b60006200036882620002f8565b62000374818562000303565b93506200038681856020860162000314565b62000391816200034a565b840191505092915050565b60008115159050919050565b620003b3816200039c565b82525050565b600060a082019050620003d06000830188620002e7565b8181036020830152620003e481876200035b565b90508181036040830152620003fa81866200035b565b90506200040b6060830185620003a8565b6200041a6080830184620002e7565b9695505050505050565b7f4e487b7100000000000000000000000000000000000000000000000000000000600052602260045260246000fd5b600060028204905060018216806200046c57607f821691505b60208210810362000482576200048162000424565b5b50919050565b610b7280620004986000396000f3fe608060405234801561001057600080fd5b506004361061007d5760003560e01c8063412f2e821161005b578063412f2e82146100da5780634de2876b1461010e5780636081c1931461012a57806395252560146101465761007d565b806320c6bab31461008257806328490ae61461009e5780633628d8d0146100bc575b600080fd5b61009c60048036038101906100979190610723565b610164565b005b6100a661016e565b6040516100b3919061075f565b60405180910390f35b6100c4610174565b6040516100d1919061075f565b60405180910390f35b6100f460048036038101906100ef9190610723565b61017a565b60405161010595949392919061082e565b60405180910390f35b610128600480360381019061012391906109c4565b6102cd565b005b610144600480360381019061013f9190610723565b6103dd565b005b61014e61062d565b60405161015b919061075f565b60405180910390f35b8060008190555050565b60005481565b60015481565b60026020528060005260406000206000915090508060000154908060010180546101a390610a6b565b80601f01602080910402602001604051908101604052809291908181526020018280546101cf90610a6b565b801561021c5780601f106101f15761010080835404028352916020019161021c565b820191906000526020600020905b8154815290600101906020018083116101ff57829003601f168201915b50505050509080600201805461023190610a6b565b80601f016020809104026020016040519081016040528092919081815260200182805461025d90610a6b565b80156102aa5780601f1061027f576101008083540402835291602001916102aa565b820191906000526020600020905b81548152906001019060200180831161028d57829003601f168201915b5050505050908060030160009054906101000a900460ff16908060040154905085565b600160008154809291906102e090610acb565b91905055506040518060a0016040528060015481526020018381526020018281526020016001151581526020014281525060026000600154815260200190815260200160002060008201518160000155602082015181600101908051906020019061034c929190610636565b506040820151816002019080519060200190610369929190610636565b5060608201518160030160006101000a81548160ff021916908315150217905550608082015181600401559050507fa1dba520ca885b2a06301af12ac157728eb7571de70cf7b2151a2a912aaf38a460015483836001426040516103d195949392919061082e565b60405180910390a15050565b6000600260008381526020019081526020016000206040518060a00160405290816000820154815260200160018201805461041790610a6b565b80601f016020809104026020016040519081016040528092919081815260200182805461044390610a6b565b80156104905780601f1061046557610100808354040283529160200191610490565b820191906000526020600020905b81548152906001019060200180831161047357829003601f168201915b505050505081526020016002820180546104a990610a6b565b80601f01602080910402602001604051908101604052809291908181526020018280546104d590610a6b565b80156105225780601f106104f757610100808354040283529160200191610522565b820191906000526020600020905b81548152906001019060200180831161050557829003601f168201915b505050505081526020016003820160009054906101000a900460ff16151515158152602001600482015481525050905080606001511581606001901515908115158152505080600260008481526020019081526020016000206000820151816000015560208201518160010190805190602001906105a1929190610636565b5060408201518160020190805190602001906105be929190610636565b5060608201518160030160006101000a81548160ff021916908315150217905550608082015181600401559050507f3170a15cf74ed3fc4ef9a3b2cbae9490495237a909075a016e9c9849efb211cf828260600151604051610621929190610b13565b60405180910390a15050565b60008054905090565b82805461064290610a6b565b90600052602060002090601f01602090048101928261066457600085556106ab565b82601f1061067d57805160ff19168380011785556106ab565b828001600101855582156106ab579182015b828111156106aa57825182559160200191906001019061068f565b5b5090506106b891906106bc565b5090565b5b808211156106d55760008160009055506001016106bd565b5090565b6000604051905090565b600080fd5b600080fd5b6000819050919050565b610700816106ed565b811461070b57600080fd5b50565b60008135905061071d816106f7565b92915050565b600060208284031215610739576107386106e3565b5b60006107478482850161070e565b91505092915050565b610759816106ed565b82525050565b60006020820190506107746000830184610750565b92915050565b600081519050919050565b600082825260208201905092915050565b60005b838110156107b4578082015181840152602081019050610799565b838111156107c3576000848401525b50505050565b6000601f19601f8301169050919050565b60006107e58261077a565b6107ef8185610785565b93506107ff818560208601610796565b610808816107c9565b840191505092915050565b60008115159050919050565b61082881610813565b82525050565b600060a0820190506108436000830188610750565b818103602083015261085581876107da565b9050818103604083015261086981866107da565b9050610878606083018561081f565b6108856080830184610750565b9695505050505050565b600080fd5b600080fd5b7f4e487b7100000000000000000000000000000000000000000000000000000000600052604160045260246000fd5b6108d1826107c9565b810181811067ffffffffffffffff821117156108f0576108ef610899565b5b80604052505050565b60006109036106d9565b905061090f82826108c8565b919050565b600067ffffffffffffffff82111561092f5761092e610899565b5b610938826107c9565b9050602081019050919050565b82818337600083830152505050565b600061096761096284610914565b6108f9565b90508281526020810184848401111561098357610982610894565b5b61098e848285610945565b509392505050565b600082601f8301126109ab576109aa61088f565b5b81356109bb848260208601610954565b91505092915050565b600080604083850312156109db576109da6106e3565b5b600083013567ffffffffffffffff8111156109f9576109f86106e8565b5b610a0585828601610996565b925050602083013567ffffffffffffffff811115610a2657610a256106e8565b5b610a3285828601610996565b9150509250929050565b7f4e487b7100000000000000000000000000000000000000000000000000000000600052602260045260246000fd5b60006002820490506001821680610a8357607f821691505b602082108103610a9657610a95610a3c565b5b50919050565b7f4e487b7100000000000000000000000000000000000000000000000000000000600052601160045260246000fd5b6000610ad6826106ed565b91507fffffffffffffffffffffffffffffffffffffffffffffffffffffffffffffffff8203610b0857610b07610a9c565b5b600182019050919050565b6000604082019050610b286000830185610750565b610b35602083018461081f565b939250505056fea2646970667358221220e78740f4f42894d384cfcc2fdad003e2418b2c2529ebde4453c14232db98fd5064736f6c634300080e0033",
  "immutableReferences": {},
  "source": "// SPDX-License-Identifier: MIT\r\npragma solidity ^0.8.6;\r\n\r\ncontract SensorsContract {\r\n\r\n    uint public dataTemp;\r\n    \r\n    uint256 public SensorCounter = 0;\r\n\r\n    struct Sensor{\r\n        uint256 id;\r\n        string NoSerie;\r\n        string Name;\r\n        bool active;\r\n        uint256 addAt;\r\n    }\r\n\r\n    event SensorAdd(\r\n        uint256 id,\r\n        string NoSerie,\r\n        string Name,\r\n        bool active,\r\n        uint256 addAt\r\n    );\r\n\r\n    event SensorStatusActive(uint256 id, bool active);\r\n\r\n    mapping(uint256 => Sensor) public sensors;\r\n\r\n    constructor() {\r\n        AddSensor(\"NUMERODESERIE01\", \"Sensor DS18B20 DALLAS\");\r\n    }\r\n\r\n    function AddSensor(string memory _NoSerie, string memory _Name) public\r\n    {\r\n        SensorCounter++;\r\n        sensors[SensorCounter] = Sensor(\r\n            SensorCounter,\r\n            _NoSerie,\r\n            _Name,\r\n            true,\r\n            block.timestamp\r\n        );\r\n        emit SensorAdd(\r\n            SensorCounter,\r\n            _NoSerie,\r\n            _Name,\r\n            true,\r\n            block.timestamp\r\n        );\r\n    }\r\n\r\n    function SensorStatus(uint256 _id) public {\r\n        Sensor memory _sensor = sensors[_id];\r\n        _sensor.active = !_sensor.active;\r\n        sensors[_id] = _sensor;\r\n        emit SensorStatusActive(_id, _sensor.active);       \r\n    }\r\n\r\n    function setTemp(uint _data) public{\r\n        dataTemp = _data;      \r\n               \r\n    }\r\n\r\n    function getTemp() external view returns (uint) {\r\n        return dataTemp;\r\n    }\r\n}",
  "sourcePath": "C:\\Users\\luife\\Desktop\\test MQTT\\contracts\\SensorsContract.sol",
  "compiler": {
    "name": "solc",
    "version": "0.8.14+commit.80d49f37.Emscripten.clang"
  },
  "schemaVersion": "3.4.7",
  "updatedAt": "2022-05-25T16:36:59.970Z",
  "networkType": "ethereum",
  "devdoc": {
    "kind": "dev",
    "methods": {},
    "version": 1
  },
  "userdoc": {
    "kind": "user",
    "methods": {},
    "version": 1
  }
}